:100000000C943A000C9457000C9457000C94570031
:100010000C9417030C948D030C9457000C94570008
:100020000C9457000C9457000C9457000C94EC035C
:100030000C9457000C9457000C9416040C94570021
:100040000C9457000C9457000C945D040C945700CA
:100050000C9457000C9457000C9457000C945700C4
:100060000C9457000C9457006364696E6F7073753D
:1000700078585B0011241FBECFEFD8E0DEBFCDBFA4
:1000800011E0A0E0B1E0E4E9FBE102C005900D92CF
:10009000A435B107D9F721E0A4E5B1E001C01D9274
:1000A000AE37B207E1F70E9442050C94C80D0C94DC
:1000B000000088B18E6088B908950E945900439865
:1000C00008950E945900429808950E94590041984D
:1000D000089580916A01811102C00C945D008091A5
:1000E00067019091680197FF12C08091670190911C
:1000F000680191958195910920915F014AE0249FC3
:10010000900111242817390738F40C946500809168
:10011000670190916801F0CF0C9461000F931F93D9
:10012000CF93DF9300D000D0CDB7DEB780915F01D1
:100130001F928F9380E091E09F938F931F9284E0B2
:100140008F938E010F5F1F4F1F930F930E94B9076C
:1001500067E081E00E94C104C8010E940B050FB650
:10016000F894DEBF0FBECDBF0F900F900F900F9091
:10017000DF91CF911F910F9108950F931F93CF930C
:10018000DF9300D000D000D01F92CDB7DEB7E09152
:100190007401F091750180917401909175012AE0CC
:1001A00030E0B9010E943A079F938F93CF01B901C4
:1001B0000E943A077F936F9384E091E09F938F931F
:1001C0001F9287E08F938E010F5F1F4F1F930F9336
:1001D0000E94B90760E080E00E94C104C8010E944B
:1001E0000B050FB6F894DEBF0FBECDBF27960FB636
:1001F000F894DEBF0FBECDBFDF91CF911F910F915D
:1002000008950F931F93CF93DF9300D000D000D0B9
:100210001F92CDB7DEB7E0916B01F0916C01809138
:100220006B0190916C012AE030E0B9010E943A071D
:100230009F938F93CF01B9010E943A077F936F93E9
:1002400084E091E09F938F931F9287E08F938E01BC
:100250000F5F1F4F1F930F930E94B90766E080E066
:100260000E94C104C8010E940B050FB6F894DEBFBE
:100270000FBECDBF27960FB6F894DEBF0FBECDBF21
:10028000DF91CF911F910F9108950F931F93CF93FB
:10029000DF9300D000D01F92CDB7DEB7309163015D
:1002A000809163012AE0622F0E942E071F929F9384
:1002B000832F0E942E071F928F938CE091E09F93D3
:1002C0008F931F9285E08F938E010F5F1F4F1F93B7
:1002D0000F930E94B9076CE080E00E94C104C8013E
:1002E0000E940B050FB6F894DEBF0FBECDBF0F9076
:1002F0000F900F900F900F90DF91CF911F910F9162
:1003000008950F931F93CF93DF93CDB7DEB7289750
:100310000FB6F894DEBF0FBECDBF809167019091FC
:1003200068012AE030E0B9010E944E07462FE72F0E
:10033000809167019091680197FF33C080916701B8
:1003400090916801919581959109B9010E943A07B0
:100350009F938F93EF934F9384E191E09F938F93BB
:100360001F9288E08F938E010F5F1F4F1F930F9393
:100370000E94B90760E081E00E94C104C8010E94A8
:100380000B050FB6F894DEBF0FBECDBF28960FB693
:10039000F894DEBF0FBECDBFDF91CF911F910F91BB
:1003A00008958091670190916801CFCF66E080E069
:1003B0000E94C1048DE191E00E940B056CE080E099
:1003C0000E94C1048EE191E00E940B0560E081E093
:1003D0000E94C1048CE191E00C940B051092810005
:1003E00010928000109285001092840080E593ECBA
:1003F0009093890080938800EFE6F0E0808182602E
:1004000080830895E1E8F0E010821092800010925D
:1004100085001092840087EA91E69093890080938A
:1004200088001092630110926D0110927A01AFE67C
:10043000B0E08C9182608C938BE080830895E0EB38
:10044000F0E080818360808380818068808383E2A4
:100450008093B300E1EBF0E08081876080830895B2
:1004600082E084BDEEE6F0E08081826080830895C2
:1004700015BC2D98A5E5B1E08EEE8C93E8E5F1E092
:100480008EE691E0918380838CEB11968C9311978B
:100490008DEC91E0938382838EE912968C93129770
:1004A00084E292E095838483109265018C9187BDEC
:1004B0008081918190937D0180937C0116BC83E0C3
:1004C00085BD089515BC2D98A5E5B1E08EE98C9306
:1004D000E8E5F1E084E292E0918380838CEB119671
:1004E0008C9311978DEC91E0938382838EEE12961C
:1004F0008C9312978EE691E0958384831092650128
:100500008C9187BD8081918190937D0180937C0146
:1005100016BC83E085BD089587E690E09093C50002
:100520008093C40088E98093C10086E08093C20074
:1005300008959091C00095FFFCCF8093C600089568
:10054000EF92FF921F93CF93DF93CDB7DEB728973B
:100550000FB6F894DEBF0FBECDBF9F938F9383E29B
:1005600091E09F938F931F9288E08F93CE01019625
:100570007C019F938F930E94B9070FB6F894DEBF5A
:100580000FBECDBF10E0F701E10FF11D8081811199
:100590000CC028960FB6F894DEBF0FBECDBFDF911A
:1005A000CF911F91FF90EF9008950E9499021F5FD5
:1005B000EACF0F931F93CF93DF93CDB7DEB7289782
:1005C0000FB6F894DEBF0FBECDBF6AE070E00E94A8
:1005D0004E077F936F9388E291E09F938F931F92D2
:1005E00085E08F938E010F5F1F4F1F930F930E9423
:1005F000B9076CE081E00E94C104C8010E940B05AC
:100600000FB6F894DEBF0FBECDBF28960FB6F89494
:10061000DEBF0FBECDBFDF91CF911F910F91089527
:100620005B9A85E38A95F1F700005B9808951F9225
:100630000F920FB60F9211242F933F938F939F9396
:1006400096B1292F207190728091600130916001E4
:10065000311112C0222339F080915F018F5F8093A6
:100660005F0181E01EC09923E1F080915F0181501C
:1006700080935F0182E015C030916001313089F5CF
:10068000211107C080915F01815080935F0180E05C
:1006900008C0992331F080915F018F5F80935F01E3
:1006A00083E090916001981799F090915F0191110A
:1006B00003C091E090935F0190915F01943618F030
:1006C00093E690935F018093600181E080937801CD
:1006D0009F918F913F912F910F900FBE0F901F9080
:1006E000189530916001323061F4222321F080911D
:1006F0005F018150D3CF9111D4CF80915F018F5F83
:10070000C4CF211104C080915F018F5FB1CF9111DF
:10071000C8CF80915F018150A2CF1F920F920FB678
:100720000F9211242F933F934F935F936F937F9377
:100730008F939F93AF93BF93CF93EF93FF934A9B76
:100740001CC0109285001092840082E0809381008A
:1007500081E080935E01FF91EF91CF91BF91AF91C6
:100760009F918F917F916F915F914F913F912F91C9
:100770000F900FBE0F901F901895C0915E01C13071
:1007800051F7109281002091840030918500A1E101
:10079000B0E00E94A30728EC30E040E050E00E9467
:1007A000620780915401813061F430937501209388
:1007B00074018093690110925E0181E0809364016D
:1007C000CACF809154018330B1F730936C012093EC
:1007D0006B01C0936101EFCF1F920F920FB60F9282
:1007E00011248F939F93809154018230B9F48091AA
:1007F00063018F5F8093630181E080936D0190912D
:100800006301943620F01092810080937A019F91C9
:100810008F910F900FBE0F901F901895109281002E
:1008200010925E0181E080936401F1CF1F920F92DC
:100830000FB60F9211248F939F93EF93FF938091A4
:100840007C0190917D01892BB1F085B190E28927DF
:1008500085B980917C0190917D01019790937D01F4
:1008600080937C01FF91EF919F918F910F900FBE2C
:100870000F901F901895809165018F5F809365019F
:10088000809165018330B0F4E0916501F0E0EB5AAE
:10089000FE4F808187BDE0916501F0E0EE0FFF1F04
:1008A000E85AFE4F8081918190937D0180937C0175
:1008B00016BCD8CF15BC2D98D5CF1F920F920FB66E
:1008C0000F9211248F939F93EF93FF938091C60013
:1008D000803481F481E08093790110927B01109241
:1008E0006201FF91EF919F918F910F900FBE0F903A
:1008F0001F90189590917901992399F3843281F48E
:1009000080917B01882349F0E0917B01F0E0E2597E
:10091000FE4F108281E08093620110927901E1CF55
:100920008D3221F090ED980F9A30B8F790917B01BD
:10093000953098F7E0917B01F0E0E259FE4F80831B
:1009400080917B018F5F80937B01CBCF9BB19F70A8
:10095000807F982B9BB9299A299A29980895CF933B
:10096000C82F28980E94A6048C2F8295807F0E9411
:10097000A6048FE39FE10197F1F700C00000CF913B
:100980000895811104C080E8860F0C94AF0480ECB8
:10099000FBCF84B1836084B98AB1806F8AB98FE557
:1009A0009AEE0197F1F700C0000080E30E94A604D0
:1009B0008FE19EE40197F1F700C0000080E30E9400
:1009C000A6048FED91E00197F1F700C0000080E3ED
:1009D0000E94A60480E20E94A6048FE39FE1019793
:1009E000F1F700C0000088E20E94AF048FE00C9491
:1009F000AF04CF93C82F289A0E94A6048C2F82950B
:100A0000807F0E94A6048FE39FE10197F1F700C069
:100A10000000CF910895CF93DF93EC01899181116C
:100A200003C0DF91CF9108950E94F904F7CFECE75E
:100A3000F0E080818F778083808180648083AAE763
:100A4000B0E08C9187608C938081806280838C91F0
:100A500080688C93089590917C00907F90937C00A7
:100A600090917C008F70892B80937C0080917A001C
:100A7000806480937A0080917A0086FDFCCF80911B
:100A800079000895CF93DF9300D0CDB7DEB784B15E
:100A9000886384B987B18E6087B9539A52982C982D
:100AA0002D985B9888B1806388B90E9459000E9494
:100AB000C9040E9417050E941F020E94EE010E94B5
:100AC0008C020E94300281E00E94AF0461E080E06D
:100AD0000E94C1048CE291E00E940B0562E081E07B
:100AE0000E94C1048AE391E00E940B052FEF8DE381
:100AF00099E4215080409040E1F700C0000081E07F
:100B00000E94AF0465E081E00E94C10488E491E0A6
:100B10000E940B0590E080E00E947B0D9FEF980FF4
:100B2000933608F084E180935F010E948E0010925A
:100B30006A010E94690096B1892F807195FD5AC1A2
:100B4000811154C11092600180916800826080938D
:100B5000680080916C00806380936C0080916800D5
:100B600084608093680080916D00846080936D0044
:100B700078940E9438022FEF8DE399E42150804051
:100B80009040E1F700C00000CE0101965C018BE4CB
:100B9000E82E81E0F82E9EE6C92E91E0D92E11E0D4
:100BA0002AE0722E03E237E1632E44E6842E912C74
:100BB00052E0552E63E0462E80917801882361F043
:100BC0001092780160915F0190E080E00E94830DB7
:100BD0000E948E000E946900809162018823C1F109
:100BE00010926201BF92AF92FF92EF92DF92CF928A
:100BF0000E94E9070F900F900F900F900F900F90A9
:100C0000019731F589819A819093770180937601DC
:100C10001093660180917601909177010E94D9022C
:100C2000809176019091770197FFEAC080917601DB
:100C30009091770191958195910920915F01279D70
:100C4000900111242817390708F0DFC00E943802EC
:100C500080917A01882391F010927A0110925401C8
:100C600010926A010E9469000093B3006CE080E07A
:100C70000E94C1048EE191E00E940B058091540115
:100C80008230A1F480916D01882381F010926D0172
:100C90000E94450180916301869DC0011124B40129
:100CA0000E943A07802F861B8093B30080E00E9449
:100CB0002B05382E8091540181112FC087E7830DB9
:100CC000873258F50E94D6011093540110926401A6
:100CD0001092690110925E010E94EE010E941003C1
:100CE00081E69AEE20916401211103C0019709F079
:100CF0008FC080916901882309F48FC00E94BD00D4
:100D0000509254010E9402028FEF93EC29E081502F
:100D100090402040E1F700C00000809154018230F3
:100D200009F05AC084E1831508F456C0109281007E
:100D30008091630133243394811130906301409298
:100D40005401109264011092610110925E010E94A0
:100D5000EE010E94100381E69AEE209164012111B8
:100D600003C0019709F068C080916101882309F4EC
:100D700068C00E940101A0916B01B0916C0180914B
:100D8000740190917501A81BB90B2AE030E00E9414
:100D9000B207232D30E050E040E00E9484073093FA
:100DA00068012093670110936A010E9481010E94EB
:100DB000690080916701909168010E94A0020093F0
:100DC000B300109254018FEF93EC29E081509040D2
:100DD0002040E1F700C000008FEF99EF20E0815044
:100DE00090402040E1F700C00000E6CE81E0809313
:100DF0006001AACE811102C082E0F9CF83E0F7CF73
:100E0000809176019091770118CF0E94620220CFE5
:100E100025E02A95F1F7000065CF60E080E00E94B0
:100E2000C1048FE491E00E940B05109254011092CE
:100E30006A010E94690068CF25E02A95F1F7000059
:100E40008CCF66E080E00E94C1048FE491E00E94B4
:100E50000B0510926A010E946900B1CF991B79E0DD
:100E600004C0991F961708F0961B881F7A95C9F73A
:100E700080950895AA1BBB1B51E107C0AA1FBB1F89
:100E8000A617B70710F0A61BB70B881F991F5A9516
:100E9000A9F780959095BC01CD01089597FB072E89
:100EA00016F4009407D077FD09D00E943A0707FC9A
:100EB00005D03EF4909581959F4F0895709561956A
:100EC0007F4F0895A1E21A2EAA1BBB1BFD010DC086
:100ED000AA1FBB1FEE1FFF1FA217B307E407F507EA
:100EE00020F0A21BB30BE40BF50B661F771F881FC6
:100EF000991F1A9469F760957095809590959B015C
:100F0000AC01BD01CF010895052E97FB1EF400949E
:100F10000E949B0757FD07D00E94620707FC03D081
:100F20004EF40C949B0750954095309521953F4F7A
:100F30004F4F5F4F089590958095709561957F4FC5
:100F40008F4F9F4F0895A29FB001B39FC001A39FF1
:100F5000700D811D1124911DB29F700D811D1124F2
:100F6000911D08950E94A307B7FF0895821B930B5C
:100F70000895AEE0B0E0EFEBF7E00C949F0D0D8923
:100F80001E898F89988D26E02C831A83098397FF09
:100F900002C080E090E801979E838D83AE01455E9C
:100FA0005F4F698D7A8DCE0101960E9402084D81B6
:100FB0005E8157FD0AC02F813885421753070CF414
:100FC0009A01020F131FF80110822E96E4E00C9490
:100FD000BB0DAEE0B0E0EFEEF7E00C94A10D85E0C4
:100FE0008C838B899C899A838983AE01495E5F4F8C
:100FF0006D897E89CE0101960E94670B2E96E2E0F4
:101000000C94BD0DABE0B0E0E8E0F8E00C94910D7D
:101010007C013B018A01FC0117821682838181FFDA
:10102000C8C1CE0101965C01F7019381F30193FDE4
:10103000859193FF81913F01882309F453C1853243
:1010400039F493FD859193FF81913F01853229F415
:10105000B70190E00E94D20CE7CF912C212C312CCB
:10106000FFE1F31538F08B3211F190F4803209F181
:10107000833229F137FC3CC020ED280F2A3050F58F
:1010800036FE20C08AE0989E200D1124922E06C0C4
:101090008D3291F0803371F7689430F8F30193FD4D
:1010A000859193FF81913F018111DACF21C068942E
:1010B00031F8689432F8F2CF689433F8EFCF68943F
:1010C00034F8ECCFEAE02E9E200D1124222E6894F5
:1010D00035F8E4CF8E3229F436FC04C1689436F832
:1010E000DDCF8C3619F4689437F8D8CF8836B1F252
:1010F000982F9F7D95549330E0F08336A1F183378C
:10110000C1F1833509F063C02801F2E04F0E511C94
:10111000F801C080D180692D70E036FC02C06FEF0D
:101120007FEFC6010E94800C4C01689437F8820161
:101130000AC00C5F1F4FFFE3F98388248394912C2E
:101140006501E89437F833FE2DC0522C81149104C8
:1011500071F5552009F468CFB70180E290E00E9454
:10116000D20C5A94F6CFF801808189830E5F1F4F0D
:10117000E4CF2801F2E04F0E511CF801C080D1806D
:10118000692D70E036FC02C06FEF7FEFC6010E9450
:101190008B0C4C018201D5CFB70180E290E00E9418
:1011A000D20C2A942814190409F0B0F7CECFF60116
:1011B00037FC859137FE81916F01B70190E00E9465
:1011C000D20C51105A94F1E08F1A9108BFCF843697
:1011D00019F0893609F077C0F80137FE6BC06081DD
:1011E0007181828193810C5F1F4FF32DFF763F2E1B
:1011F00097FF09C090958095709561957F4F8F4FAF
:101200009F4F689437F82AE030E0A5010E941A0D3C
:10121000C82ECA188C2C432C36FE0CC0E89440F81B
:10122000C91440F434FE05C032FC03C0F32DFE7E29
:101230004F2E892C44FE95C0FE01EC0DF11D8081DE
:10124000803309F087C0242D297E422E842D88709A
:10125000582E43FC95C040FE8FC09C2C821418F47D
:101260002C0C922C981844FE91C0B70180E390E0BA
:101270000E94D20C42FE09C088E790E041FE02C005
:1012800088E590E0B7010E94D20CC91408F48AC026
:10129000CA94D12C9FEFC91AD90ACA0CDB1CF601DB
:1012A00082916F01B70190E00E94D20CAC14BD0492
:1012B000B1F74FCF60817181072E000C880B990B1D
:1012C0000E5F1F4F92CFD32CE894D4F82AE030E081
:1012D000853739F1232D297FD22E8F3601F148F43D
:1012E0008835A9F0F701868197812B96E2E10C946D
:1012F000AD0D803749F08837A9F7D4FE02C0689455
:10130000D2F820E130E00DC06894D4F8F6CF34FE76
:1013100003C0822F8660D82E20E132E002C028E090
:1013200030E0F801D7FE0FC0608171818281938126
:101330000C5F1F4FA5010E941A0DC82ECA183D2C24
:10134000E89437F867CF6081718190E080E00E5FAC
:101350001F4FF0CF42FC02C0839478CF83948394D4
:1013600075CF842D867809F471CFF6CFB70180E26E
:1013700090E00E94D20C83948214C0F3512C73CF5E
:10138000522C5818821408F46ECFF8CF842D86782A
:1013900009F47BCF8BE241FE80E247FC8DE2B7018E
:1013A00090E071CFB70180E390E00E94D20C9A9454
:1013B0006CCF8FEF9FEF99CF20FD09C0FC0123FD7B
:1013C00005C022FF02C07383628351834083089566
:1013D00044FD17C046FD1DC0DB01FC01AA0FBB1F69
:1013E000EE1FFF1F1094D1F76A0F7B1F8E1F9F1FE8
:1013F000660F771F881F991F620F711D811D911D38
:10140000089533E0660F771F881F991F3150D1F779
:10141000F3CF34E0F7CF0F931F93CF93DF938C017B
:10142000C8010E94960CEC0197FD08C00E946C0C4C
:10143000892BB1F7B801CE010E94020DCE01DF91D8
:10144000CF911F910F9108958F929F92AF92BF926B
:10145000EF92FF920F931F93CF93DF938C01D62FC0
:101460007A01B22E0E94960C9C0133272B32310553
:1014700029F02D323105A9F46894B7F8D15061F400
:1014800080E0DF91CF911F910F91FF90EF90BF907F
:10149000AF909F908F900895C8010E94960C97FD81
:1014A000EFCFCB2DCD7F2B2D2073F9F48033E9F4D2
:1014B000AA24AA94AD0E89F0C8010E94960C97FD4B
:1014C0000CC0282F2F7D283561F4C264D25029F03A
:1014D000C8010E94960C97FF08C0812C912C5401E2
:1014E0001BC0B6FE2BC0C260DA2D812C912C54019A
:1014F00020ED280F283028F1C4FD09C02A3008F15A
:10150000C6FF05C02F7D3FEE320F3630C8F0B80160
:101510000E94020DC1FFB4CFC7FF08C0B094A094D1
:1015200090948094811C911CA11CB11C2C2FB5019E
:10153000A401C7010E94DC0981E0A3CFC261D4CF1E
:1015400027504C2FC501B4010E94E8094B015C01F2
:10155000C260D15009F3C8010E94960C97FFC8CF12
:10156000D9CFA0E2B0E0E7EBFAE00C94960D5C0175
:10157000962E7A01CE0101966C0180E2F60111925D
:101580008A95E9F7F501B381890130E020E0712CFB
:10159000812CA0E041E050E0F801B3FD8591B3FF5C
:1015A0008191982F8F01811107C010E000E0C801E0
:1015B000A096EDE00C94B20D8E3519F4211531058D
:1015C00041F1A21713064CF48D3549F18D3229F4FF
:1015D000811006C0882483941DC0882009F464C04B
:1015E000E92FE695E695E695EC0DFD2DF11D892F89
:1015F0008770BA0101C0660F8A95EAF78081682B6F
:101600006083791651F0971510F49F5FE9CF9150E0
:10161000E7CFA1E02F5F3F4FBFCF812CFBCF8820CA
:1016200019F08E8180628E83AA2359F0F6019E0103
:101630002F5D3F4F8081809580833196E217F307BD
:10164000C9F788248394C5010E94960C97FD16C0A3
:10165000E82FE695E695E695EC0DFD2DF11D208130
:1016600030E0AC014770552702C0359527954A9563
:10167000E2F720FD06C0B5010E94020D882069F046
:1016800094CFE114F10429F0F7018083C70101969A
:101690007C019A94812C9110D6CFE114F10409F4C5
:1016A00086CFF701108283CFE82FE695E695E69581
:1016B000EC0DFD2DF11D982F9770BA0101C0660F3A
:1016C0009A95EAF79081692B6083782EA3CFB0E0DA
:1016D000A0E0EDE6FBE00C94940D6C01EB015A01E7
:1016E000FC0117821682512CF601E380FE01E3FC17
:1016F0008591E3FE8191182FEF018823E9F090E0B6
:101700000E946C0C892B21F0C6010E940B0AECCFC1
:10171000153241F4FE01E3FC1591E3FE1191EF0156
:10172000153269F4C6010E94960C97FD8EC01817F9
:10173000D9F2B6010E94020D852D90E08AC000E02A
:101740001A3231F4E3FC1591E3FE1191EF0101E04F
:10175000F12C20ED210F2A3048F101FF37C0FF2086
:1017600059F31836B1F11C3609F43DC0112321F3A9
:10177000612F70E088E690E00E94750C892BE1F201
:10178000912C812C00FD06C0F50180809180C5015F
:1017900002965C011E3679F5F6014681578170E0AC
:1017A00060E0202FC4010E94DC099ECF02606F2DF3
:1017B00070E090E080E040E20E94E809F62EFE0131
:1017C000E3FC1591E3FE1191EF01C3CFFF24FA94DE
:1017D000C8CFFE01E3FC1591E3FE1191EF0118362D
:1017E00009F0C4CF08600460FE01E3FC1591E3FE3C
:1017F0001191EF01BBCF1336C1F401FD02C0FF24EC
:10180000F394C6010E94960C97FD1FC081149104A9
:1018100029F0F4018083C40101964C01FA94F1107F
:10182000F0CF00FD61CF53945FCF1B35B9F49E011B
:10183000A4016F2DC6010E94B10AEC01892B89F722
:10184000F6018381807309F477CF8FEF9FEF5110FA
:1018500073CFCDB7DEB7EFE00C94B00DC6010E9498
:101860000B0A97FDF2CF1F36A9F130F4143641F080
:10187000193639F0006405C01337B9F01537D1F7C0
:101880000062202FA4016F2DC6010E94240A81113D
:10189000C8CFD6CF8114910429F0F4016082C4012D
:1018A00001964C01FA94FF2071F0C6010E94960C3B
:1018B0003C0197FD08C00E946C0C892B59F3B601BE
:1018C000C3010E94020D8114910409F4AACFF4010E
:1018D0001082A7CF0061D5CF91110C94780D803282
:1018E00019F089508550C8F70895FC010590061637
:1018F00021F00020D9F7C00108953197CF01089554
:10190000FC010590615070400110D8F780959095CA
:101910008E0F9F1F0895FC016150704001900110CF
:10192000D8F7809590958E0F9F1F0895CF93DF93E2
:10193000EC012B8120FF1AC026FF0CC02F7B2B83CC
:101940008E819F8101969F838E838A8190E0DF91B3
:10195000CF91089522FF18C0E881F9818081082E77
:10196000000C990B009729F420622B838FEF9FEFD7
:10197000EECF3196F983E8832E813F812F5F3F4F71
:101980003F832E839927E3CFEA85FB85099597FF4F
:10199000F3CF2B81019621F080E2822B8B83E6CF5F
:1019A00080E1FBCF0F931F93CF93DF93182F092F65
:1019B000EB018B8181FD09C01FEF0FEF812F902F6D
:1019C000DF91CF911F910F91089582FF14C02E8156
:1019D0003F818C819D81281739073CF4E881F9818A
:1019E000CF0101969983888310838E819F81019610
:1019F0009F838E83E3CFE885F985812F0995892B15
:101A0000A1F3DACFFB01238120FF11C026FD0FC017
:101A10008F3F980771F082832F7D20642383268176
:101A200037812150310937832683992708958FEF15
:101A30009FEF0895FA01AA27283051F1203181F152
:101A4000E8946F936E7F6E5F7F4F8F4F9F4FAF4FC6
:101A5000B1E03ED0B4E03CD0670F781F891F9A1FD9
:101A6000A11D680F791F8A1F911DA11D6A0F711D8D
:101A7000811D911DA11D20D009F468943F912AE099
:101A8000269F11243019305D3193DEF6CF01089581
:101A9000462F4770405D4193B3E00FD0C9F7F6CFB2
:101AA000462F4F70405D4A3318F0495D31FD40527A
:101AB000419302D0A9F7EACFB4E0A6959795879510
:101AC00077956795BA95C9F70097610571050895EF
:101AD0009B01AC010A2E069457954795379527959B
:101AE000BA95C9F7620F731F841F951FA01D089533
:101AF000992788270895F999FECF92BD81BDF89A5C
:101B0000992780B50895262FF999FECF1FBA92BD67
:101B100081BD20BD0FB6F894FA9AF99A0FBE0196CE
:101B200008952F923F924F925F926F927F928F9281
:101B30009F92AF92BF92CF92DF92EF92FF920F935C
:101B40001F93CF93DF93CDB7DEB7CA1BDB0B0FB666
:101B5000F894DEBF0FBECDBF09942A883988488823
:101B60005F846E847D848C849B84AA84B984C884B9
:101B7000DF80EE80FD800C811B81AA81B981CE0FB0
:101B8000D11D0FB6F894DEBF0FBECDBFED01089595
:041B9000F894FFCFF7
:101B9400253264002533752E253175002532752EC6
:101BA400253175002534642E253175002020202030
:101BB400202000402564240025346400546F6E798D
:101BC400204F6C6976617265730045453130392068
:101BD40050726F6A65637400543A0025686400208B
:041BE4002D2D2D0076
:00000001FF
