:100000000C9434000C9451000C9451000C94510049
:100010000C9427010C949D010C9451000C945100F8
:100020000C9451000C9451000C9451000C94EC0170
:100030000C9451000C9451000C9451000C945100FC
:100040000C9451000C9451000C9451000C945100EC
:100050000C9451000C9451000C9451000C945100DC
:100060000C9451000C94510011241FBECFEFD8E026
:10007000DEBFCDBF11E0A0E0B1E0EAE5FDE002C0E7
:1000800005900D92A233B107D9F721E0A2E3B1E0C8
:1000900001C01D92AD33B207E1F70E949D020C949E
:1000A000AB060C94000088B18E6088B908950E9458
:1000B0005300439808950E945300429808950E9467
:1000C00053004198089580913901811102C00C9428
:1000D0005700809136019091370197FF12C08091AF
:1000E00036019091370191958195910920913301C5
:1000F0004AE0249F900111242817390738F40C9402
:100100005F008091360190913701F0CF0C945B0035
:100110000F931F93CF93DF9300D000D0CDB7DEB7FE
:10012000809133011F928F9380E091E09F938F9392
:100130001F9284E08F938E010F5F1F4F1F930F93C9
:100140000E94B00367E081E00E941C02C8010E9487
:1001500066020FB6F894DEBF0FBECDBF0F900F90B2
:100160000F900F90DF91CF911F910F9108950F93F2
:100170001F93CF93DF9300D000D000D01F92CDB754
:10018000DEB7E0913A01F0913B0180913A01909104
:100190003B012AE030E0B9010E946B039F938F93EB
:1001A000CF01B9010E946B037F936F9384E091E0CC
:1001B0009F938F931F9287E08F938E010F5F1F4F46
:1001C0001F930F930E94B00360E080E00E941C0226
:1001D000C8010E9466020FB6F894DEBF0FBECDBF05
:1001E00027960FB6F894DEBF0FBECDBFDF91CF913B
:1001F0001F910F910895109280001092810010922B
:1002000085001092840080E593EC909389008093A0
:100210008800EFE6F0E080818260808308955B9A39
:1002200085E38A95F1F700005B980895E0EBF0E034
:100230008081836080838081806880838CE080936C
:10024000B300E1EBF0E080818760808308951F9226
:100250000F920FB60F9211242F933F938F939F937A
:1002600096B1292F20719072809134013091340120
:10027000311112C0222339F0809133018F5F8093B6
:10028000330181E01EC09923E1F080913301815058
:100290008093330182E015C030913401313089F50B
:1002A000211107C08091330181508093330180E098
:1002B00008C0992331F0809133018F5F809333011F
:1002C00083E090913401981799F090913301911146
:1002D00003C091E09093330190913301943618F06C
:1002E00093E6909333018093340181E080933C0145
:1002F0009F918F913F912F910F900FBE0F901F9064
:10030000189530913401323061F4222321F080912C
:1003100033018150D3CF9111D4CF809133018F5FBE
:10032000C4CF211104C0809133018F5FB1CF9111EF
:10033000C8CF809133018150A2CF1F920F920FB688
:100340000F9211242F933F934F935F936F937F935B
:100350008F939F93AF93BF93CF93EF93FF934A9B5A
:100360001CC0109285001092840082E0809381006E
:1003700081E080933201FF91EF91CF91BF91AF91D6
:100380009F918F917F916F915F914F913F912F91AD
:100390000F900FBE0F901F901895C0913201C13081
:1003A00051F7109281002091840030918500A1E1E5
:1003B000B0E00E94A10328EC30E040E050E00E9451
:1003C0007F0330933B0120933A01C0933801C093DF
:1003D000350110923201CFCF1F920F920FB60F92BC
:1003E00011248F93109281001092320110923801E3
:1003F00081E0809335018F910F900FBE0F901F9079
:1004000018959BB19F70807F982B9BB9299A299A48
:1004100029980895CF93C82F28980E9401028C2F05
:100420008295807F0E9401028FE39FE10197F1F79F
:1004300000C00000CF910895811104C080E8860FAC
:100440000C940A0280ECFBCF84B1836084B98AB13A
:10045000806F8AB98FE59AEE0197F1F700C000002E
:1004600080E30E9401028FE19EE40197F1F700C052
:10047000000080E30E9401028FED91E00197F1F707
:1004800000C0000080E30E94010280E20E9401029D
:100490008FE39FE10197F1F700C0000088E20E941E
:1004A0000A028FE00C940A02CF93C82F289A0E9468
:1004B00001028C2F8295807F0E9401028FE39FE1D1
:1004C0000197F1F700C00000CF910895CF93DF931B
:1004D000EC018991811103C0DF91CF9108950E94B1
:1004E0005402F7CFECE7F0E080818F778083808142
:1004F00080648083AAE7B0E08C9187608C938081D0
:10050000806280838C9180688C93089590917C00A8
:10051000907F90937C0090917C008F70892B8093CA
:100520007C0080917A00806480937A0080917A00C8
:1005300086FDFCCF80917900089584B1886384B9E9
:1005400087B18E6087B9539A52982C9A2D985B98F0
:1005500088B1806388B90E9453000E9424020E94DF
:1005600072020E9416010E94FB0081E00E940A02B2
:1005700061E080E00E941C028CE091E00E94660233
:1005800062E081E00E941C028AE191E00E94660222
:100590002FEF8DE399E4215080409040E1F700C0B7
:1005A000000081E00E940A0265E081E00E941C02D6
:1005B00088E291E00E94660290E080E00E945E0680
:1005C0009FEF980F933608F084E1809333010E94E7
:1005D0008800109239010E94630096B1892F8071C2
:1005E00095FD62C081115CC0109234018091680059
:1005F00082608093680080916C00806380936C00BF
:100600008091680084608093680080916D008460B0
:1006100080936D00789480913C01882361F0109262
:100620003C016091330190E080E00E9466060E94E8
:1006300088000E94630080E00E94860297E7980F7E
:10064000973208F045C0109235011092380110928F
:10065000320110928500109284000E940F0181E601
:100660009AEE20913501211102C0019719F5809170
:100670003801882321F10E94B7008FEF93EC29E025
:10068000815090402040E1F700C000008FEF99EFCB
:1006900020E0815090402040E1F700C00000BBCF37
:1006A00081E080933401A2CF811102C082E0F9CFB2
:1006B00083E0F7CF25E02A95F1F70000D2CF60E084
:1006C00080E00E941C028BE291E00E946602D5CF7E
:1006D000853198F2DBCFAA1BBB1B51E107C0AA1FD3
:1006E000BB1FA617B70710F0A61BB70B881F991FD3
:1006F0005A95A9F780959095BC01CD010895A1E286
:100700001A2EAA1BBB1BFD010DC0AA1FBB1FEE1F8B
:10071000FF1FA217B307E407F50720F0A21BB30BD6
:10072000E40BF50B661F771F881F991F1A9469F752
:1007300060957095809590959B01AC01BD01CF01AE
:100740000895A29FB001B39FC001A39F700D811DAA
:100750001124911DB29F700D811D1124911D0895CA
:10076000AEE0B0E0E6EBF3E00C9482060D891E8962
:100770008F89988D26E02C831A83098397FF02C006
:1007800080E090E801979E838D83AE01455E5F4FC8
:10079000698D7A8DCE0101960E94E0034D815E81C4
:1007A00057FD0AC02F813885421753070CF49A0170
:1007B000020F131FF80110822E96E4E00C949E069F
:1007C000ABE0B0E0E6EEF3E00C9474067C013B0194
:1007D0008A01FC0117821682838181FFC8C1CE0184
:1007E00001965C01F7019381F30193FD859193FFDD
:1007F00081913F01882309F453C1853239F493FD77
:10080000859193FF81913F01853229F4B70190E0F2
:100810000E94D005E7CF912C212C312CFFE1F3155C
:1008200038F08B3211F190F4803209F1833229F1E2
:1008300037FC3CC020ED280F2A3050F536FE20C092
:100840008AE0989E200D1124922E06C08D3291F0E0
:10085000803371F7689430F8F30193FD859193FF2D
:1008600081913F018111DACF21C0689431F86894F9
:1008700032F8F2CF689433F8EFCF689434F8ECCFC5
:10088000EAE02E9E200D1124222E689435F8E4CF44
:100890008E3229F436FC04C1689436F8DDCF8C36EC
:1008A00019F4689437F8D8CF8836B1F2982F9F7D25
:1008B00095549330E0F08336A1F18337C1F183354D
:1008C00009F063C02801F2E04F0E511CF801C0800E
:1008D000D180692D70E036FC02C06FEF7FEFC6015A
:1008E0000E94BA054C01689437F882010AC00C5F77
:1008F0001F4FFFE3F98388248394912C6501E894CA
:1009000037F833FE2DC0522C8114910471F5552017
:1009100009F468CFB70180E290E00E94D0055A94B4
:10092000F6CFF801808189830E5F1F4FE4CF280145
:10093000F2E04F0E511CF801C080D180692D70E0AB
:1009400036FC02C06FEF7FEFC6010E94C5054C0167
:100950008201D5CFB70180E290E00E94D0052A94B1
:100960002814190409F0B0F7CECFF60137FC8591B1
:1009700037FE81916F01B70190E00E94D0055110C0
:100980005A94F1E08F1A9108BFCF843619F0893656
:1009900009F077C0F80137FE6BC0608171818281F8
:1009A00093810C5F1F4FF32DFF763F2E97FF09C0F9
:1009B00090958095709561957F4F8F4F9F4F68946C
:1009C00037F82AE030E0A5010E940006C82ECA18B8
:1009D0008C2C432C36FE0CC0E89440F8C91440F42B
:1009E00034FE05C032FC03C0F32DFE7E4F2E892C51
:1009F00044FE95C0FE01EC0DF11D8081803309F0AD
:100A000087C0242D297E422E842D8870582E43FCC9
:100A100095C040FE8FC09C2C821418F42C0C922C94
:100A2000981844FE91C0B70180E390E00E94D00581
:100A300042FE09C088E790E041FE02C088E590E0F0
:100A4000B7010E94D005C91408F48AC0CA94D12CF9
:100A50009FEFC91AD90ACA0CDB1CF60182916F01FB
:100A6000B70190E00E94D005AC14BD04B1F74FCFA0
:100A700060817181072E000C880B990B0E5F1F4F50
:100A800092CFD32CE894D4F82AE030E0853739F1BE
:100A9000232D297FD22E8F3601F148F48835A9F015
:100AA000F701868197812B96E2E10C9490068037BE
:100AB00049F08837A9F7D4FE02C06894D2F820E143
:100AC00030E00DC06894D4F8F6CF34FE03C0822F16
:100AD0008660D82E20E132E002C028E030E0F80144
:100AE000D7FE0FC060817181828193810C5F1F4F9F
:100AF000A5010E940006C82ECA183D2CE89437F8BC
:100B000067CF6081718190E080E00E5F1F4FF0CF72
:100B100042FC02C0839478CF8394839475CF842D54
:100B2000867809F471CFF6CFB70180E290E00E9499
:100B3000D00583948214C0F3512C73CF522C5818D3
:100B4000821408F46ECFF8CF842D867809F47BCF19
:100B50008BE241FE80E247FC8DE2B70190E071CF6D
:100B6000B70180E390E00E94D0059A946CCF8FEF9C
:100B70009FEF99CFFC010590615070400110D8F7AC
:100B8000809590958E0F9F1F0895FC0161507040D5
:100B900001900110D8F7809590958E0F9F1F0895B2
:100BA0000F931F93CF93DF93182F092FEB018B81A6
:100BB00081FD09C01FEF0FEF812F902FDF91CF91A3
:100BC0001F910F91089582FF14C02E813F818C8167
:100BD0009D81281739073CF4E881F981CF010196FE
:100BE0009983888310838E819F8101969F838E8352
:100BF000E3CFE885F985812F0995892BA1F3DACF19
:100C0000FA01AA27283051F1203181F1E8946F933D
:100C10006E7F6E5F7F4F8F4F9F4FAF4FB1E03ED0E3
:100C2000B4E03CD0670F781F891F9A1FA11D680F81
:100C3000791F8A1F911DA11D6A0F711D811D911DB4
:100C4000A11D20D009F468943F912AE0269F112429
:100C50003019305D3193DEF6CF010895462F47708D
:100C6000405D4193B3E00FD0C9F7F6CF462F4F70E8
:100C7000405D4A3318F0495D31FD4052419302D046
:100C8000A9F7EACFB4E0A6959795879577956795EC
:100C9000BA95C9F700976105710508959B01AC01EC
:100CA0000A2E06945795479537952795BA95C9F713
:100CB000620F731F841F951FA01D0895F999FECF21
:100CC00092BD81BDF89A992780B50895262FF9998C
:100CD000FECF1FBA92BD81BD20BD0FB6F894FA9A1F
:100CE000F99A0FBE019608952F923F924F925F920C
:100CF0006F927F928F929F92AF92BF92CF92DF922C
:100D0000EF92FF920F931F93CF93DF93CDB7DEB790
:100D1000CA1BDB0B0FB6F894DEBF0FBECDBF099424
:100D20002A88398848885F846E847D848C849B847B
:100D3000AA84B984C884DF80EE80FD800C811B8189
:100D4000AA81B981CE0FD11D0FB6F894DEBF0FBEB8
:0A0D5000CDBFED010895F894FFCF28
:100D5A00253264002533752E25317500546F6E795E
:100D6A00204F6C69766172657300454531303920D0
:100D7A0050726F6A65637400543A00202D2D2D203D
:020D8A00000067
:00000001FF
