:100000000C9434000C9451000C9451000C94510049
:100010000C9431020C94A7020C9451000C945100E2
:100020000C9451000C9451000C9451000C94060354
:100030000C9451000C9451000C9451000C945100FC
:100040000C9451000C9451000C9451000C945100EC
:100050000C9451000C9451000C9451000C945100DC
:100060000C9451000C94510011241FBECFEFD8E026
:10007000DEBFCDBF11E0A0E0B1E0E6EAF1E102C0F1
:1000800005900D92A834B107D9F721E0A8E4B1E0BA
:1000900001C01D92AA35B207E1F70E94CC030C946F
:1000A000D1080C94000088B18E6088B908950E9430
:1000B0005300439808950E945300429808950E9467
:1000C00053004198089580915201811102C00C940F
:1000D000570080914F019091500197FF12C080917D
:1000E0004F019091500191958195910920914A017C
:1000F0004AE0249F900111242817390738F40C9402
:100100005F0080914F0190915001F0CF0C945B0003
:100110000F931F93CF93DF9300D000D0CDB7DEB7FE
:1001200080914A011F928F9380E091E09F938F937B
:100130001F9284E08F938E010F5F1F4F1F930F93C9
:100140000E94D60567E081E00E944B03C8010E942F
:1001500095030FB6F894DEBF0FBECDBF0F900F9082
:100160000F900F90DF91CF911F910F9108950F93F2
:100170001F93CF93DF9300D000D000D01F92CDB754
:10018000DEB7E0915601F0915701809156019091B0
:1001900057012AE030E0B9010E9457059F938F93E1
:1001A000CF01B9010E9457057F936F9384E091E0DE
:1001B0009F938F931F9287E08F938E010F5F1F4F46
:1001C0001F930F930E94D60560E080E00E944B03CE
:1001D000C8010E9495030FB6F894DEBF0FBECDBFD5
:1001E00027960FB6F894DEBF0FBECDBFDF91CF913B
:1001F0001F910F9108950F931F93CF93DF9300D01A
:1002000000D000D01F92CDB7DEB7E0915301F0913E
:10021000540180915301909154012AE030E0B901DA
:100220000E9457059F938F93CF01B9010E945705F4
:100230007F936F9384E091E09F938F931F9287E069
:100240008F938E010F5F1F4F1F930F930E94D60550
:1002500066E080E00E944B03C8010E9495030FB640
:10026000F894DEBF0FBECDBF27960FB6F894DEBF61
:100270000FBECDBFDF91CF911F910F9108950F93C6
:100280001F93CF93DF9300D000D01F92CDB7DEB77E
:1002900030914D0180914D012AE0622F0E944B0563
:1002A0001F929F93832F0E944B051F928F938CE088
:1002B00091E09F938F931F9285E08F938E010F5F44
:1002C0001F4F1F930F930E94D6056CE080E00E94A1
:1002D0004B03C8010E9495030FB6F894DEBF0FBE12
:1002E000CDBF0F900F900F900F900F90DF91CF9197
:1002F0001F910F9108950F931F93CF93DF93CDB765
:10030000DEB728970FB6F894DEBF0FBECDBF809141
:100310004F01909150012AE030E0B9010E946B0535
:10032000462FE72F80914F019091500197FF33C0E6
:1003300080914F0190915001919581959109B9015A
:100340000E9457059F938F93EF934F9384E191E021
:100350009F938F931F9288E08F938E010F5F1F4FA3
:100360001F930F930E94D60560E081E00E944B032B
:10037000C8010E9495030FB6F894DEBF0FBECDBF33
:1003800028960FB6F894DEBF0FBECDBFDF91CF9198
:100390001F910F91089580914F0190915001CFCFFF
:1003A00066E080E00E944B038DE191E00E9495039E
:1003B0006CE080E00E944B038EE191E00E94950387
:1003C00060E081E00E944B038CE191E00C94950386
:1003D000109281001092800010928500109284008B
:1003E00080E593EC9093890080938800EFE6F0E03D
:1003F0008081826080830895E1E8F0E010821092AD
:100400008000109285001092840087EA91E6909314
:1004100089008093880010924D011092550110922E
:100420005901AFE6B0E08C9182608C938BE08083C1
:100430000895E0EBF0E080818360808380818068B4
:1004400080838CE08093B300E1EBF0E080818760F3
:10045000808308955B9A85E38A95F1F700005B98A5
:1004600008951F920F920FB60F9211242F933F936E
:100470008F939F9396B1292F2071907280914B0199
:1004800030914B01311112C0222339F080914A0181
:100490008F5F80934A0181E01EC09923E1F0809133
:1004A0004A01815080934A0182E015C030914B018E
:1004B000313089F5211107C080914A018150809324
:1004C0004A0180E008C0992331F080914A018F5F92
:1004D00080934A0183E090914B01981799F0909195
:1004E0004A01911103C091E090934A0190914A0111
:1004F000943618F093E690934A0180934B0181E083
:10050000809358019F918F913F912F910F900FBE33
:100510000F901F90189530914B01323061F42223D7
:1005200021F080914A018150D3CF9111D4CF809195
:100530004A018F5FC4CF211104C080914A018F5FAF
:10054000B1CF9111C8CF80914A018150A2CF1F92A3
:100550000F920FB60F9211242F933F934F935F93F7
:100560006F937F938F939F93AF93BF93CF93EF93AB
:10057000FF934A9B1CC0109285001092840082E079
:100580008093810081E080934901FF91EF91CF91A9
:10059000BF91AF919F918F917F916F915F914F919B
:1005A0003F912F910F900FBE0F901F901895C09103
:1005B0004901C13051F7109281002091840030919F
:1005C0008500A1E1B0E00E94C00528EC30E040E0E9
:1005D00050E00E947F0580914801813061F43093A2
:1005E000570120935601809351011092490181E0F7
:1005F00080934E01CACF809148018330B1F7309388
:10060000540120935301C0934C01EFCF1F920F92DE
:100610000FB60F9211248F939F93809148018230DF
:10062000B9F480914D018F5F80934D0181E08093FB
:10063000550190914D01943620F0109281008093E5
:1006400059019F918F910F900FBE0F901F90189599
:10065000109281001092490181E080934E01F1CF08
:100660009BB19F70807F982B9BB9299A299A2998D2
:100670000895CF93C82F28980E9430038C2F82951D
:10068000807F0E9430038FE39FE10197F1F700C064
:100690000000CF910895811104C080E8860F0C946A
:1006A000390380ECFBCF84B1836084B98AB1806F59
:1006B0008AB98FE59AEE0197F1F700C0000080E358
:1006C0000E9430038FE19EE40197F1F700C0000023
:1006D00080E30E9430038FED91E00197F1F700C0B5
:1006E000000080E30E94300380E20E9430038FE329
:1006F0009FE10197F1F700C0000088E20E943903F2
:100700008FE00C943903CF93C82F289A0E943003AE
:100710008C2F8295807F0E9430038FE39FE10197A9
:10072000F1F700C00000CF910895CF93DF93EC0163
:100730008991811103C0DF91CF9108950E948303B5
:10074000F7CFECE7F0E080818F7780838081806451
:100750008083AAE7B0E08C9187608C93808180626F
:1007600080838C9180688C93089590917C00907F19
:1007700090937C0090917C008F70892B80937C00FB
:1007800080917A00806480937A0080917A0086FD5F
:10079000FCCF80917900089584B1886384B987B1D2
:1007A0008E6087B9539A52982C9A2D985B9888B18D
:1007B000806388B90E9453000E9453030E94A103E2
:1007C0000E9419020E94E80181E00E94390361E061
:1007D00080E00E944B0383E291E00E94950362E077
:1007E00081E00E944B0381E391E00E9495032FEF8B
:1007F0008DE399E4215080409040E1F700C0000073
:1008000081E00E94390365E081E00E944B038FE3A1
:1008100091E00E94950390E080E00E9484089FEFA1
:10082000980F933608F084E180934A010E94880073
:10083000109252010E94630096B1892F807195FD3C
:1008400000C18111FAC010924B0180916800826052
:100850008093680080916C00806380936C0080912D
:10086000680084608093680080916D00846080934C
:100870006D007894DCE087E1E82E04E610E093E276
:10088000D92EFF24F39422E0C22E33E0B32E8091C0
:100890005801882361F01092580160914A0190E05C
:1008A00080E00E948C080E9488000E946300809172
:1008B0005901882391F01092590110924801109229
:1008C00052010E946300D093B3006CE080E00E946C
:1008D0004B038EE191E00E949503809148018230A4
:1008E000A1F480915501882381F0109255010E9456
:1008F0003F0180914D018E9DC0011124B8010E94DD
:1009000057058D2D861B8093B30080E00E94B503B0
:10091000C82F8091480181112FC087E78C0F873243
:1009200058F50E94D001F092480110924E011092A9
:100930005101109249010E94E8010E942A0281E6B9
:100940009AEE20914E01211103C0019709F07FC05A
:1009500080915101882309F47FC00E94B700C092A2
:1009600048010E94FC018FEF93EC29E081509040F8
:100970002040E1F700C0000080914801823009F07A
:1009800052C0C53108F04FC01092810080914D01D6
:10099000C1E08111C0914D01B092480110924E0109
:1009A00010924C01109249010E94E8010E942A0213
:1009B00081E69AEE20914E01211103C0019709F0C2
:1009C0005AC080914C01882309F45AC00E94FB0050
:1009D000A0915301B091540180915601909157011B
:1009E000A81BB90B2AE030E00E94CF052C2F30E085
:1009F00050E040E00E94A1053093500120934F0148
:100A0000F09252010E947B010E946300D093B300D8
:100A1000109248018FEF93EC29E0815090402040E4
:100A2000E1F700C000008FEF99EF20E08150904087
:100A30002040E1F700C000002ACF81E080934B0105
:100A400004CF811102C082E0F9CF83E0F7CF25E027
:100A50002A95F1F7000075CF60E080E00E944B031B
:100A600082E491E00E949503109248011092520195
:100A70000E94630078CF25E02A95F1F700009ACF15
:100A800066E080E00E944B0382E491E00E949503BF
:100A900010925201B9CF991B79E004C0991F9617A3
:100AA00008F0961B881F7A95C9F780950895AA1BB0
:100AB000BB1B51E107C0AA1FBB1FA617B70710F049
:100AC000A61BB70B881F991F5A95A9F7809590957B
:100AD000BC01CD01089597FB072E16F4009407D0B2
:100AE00077FD09D00E94570507FC05D03EF490958C
:100AF00081959F4F0895709561957F4F0895A1E26C
:100B00001A2EAA1BBB1BFD010DC0AA1FBB1FEE1F87
:100B1000FF1FA217B307E407F50720F0A21BB30BD2
:100B2000E40BF50B661F771F881F991F1A9469F74E
:100B300060957095809590959B01AC01BD01CF01AA
:100B40000895052E97FB1EF400940E94B80557FDEA
:100B500007D00E947F0507FC03D04EF40C94B80523
:100B600050954095309521953F4F4F4F5F4F0895D9
:100B700090958095709561957F4F8F4F9F4F089509
:100B8000A29FB001B39FC001A39F700D811D1124CE
:100B9000911DB29F700D811D1124911D08950E9419
:100BA000C005B7FF0895821B930B0895AEE0B0E037
:100BB000ECEDF5E00C94A8080D891E898F89988DBD
:100BC00026E02C831A83098397FF02C080E090E817
:100BD00001979E838D83AE01455E5F4F698D7A8D4F
:100BE000CE0101960E9406064D815E8157FD0AC026
:100BF0002F813885421753070CF49A01020F131FF7
:100C0000F80110822E96E4E00C94C408ABE0B0E04A
:100C1000ECE0F6E00C949A087C013B018A01FC01AF
:100C200017821682838181FFC8C1CE0101965C01C3
:100C3000F7019381F30193FD859193FF81913F012A
:100C4000882309F453C1853239F493FD859193FFCC
:100C500081913F01853229F4B70190E00E94F607A7
:100C6000E7CF912C212C312CFFE1F31538F08B329A
:100C700011F190F4803209F1833229F137FC3CC044
:100C800020ED280F2A3050F536FE20C08AE0989ECD
:100C9000200D1124922E06C08D3291F0803371F711
:100CA000689430F8F30193FD859193FF81913F01A2
:100CB0008111DACF21C0689431F8689432F8F2CF0C
:100CC000689433F8EFCF689434F8ECCFEAE02E9EC6
:100CD000200D1124222E689435F8E4CF8E3229F4A9
:100CE00036FC04C1689436F8DDCF8C3619F468946C
:100CF00037F8D8CF8836B1F2982F9F7D955493302E
:100D0000E0F08336A1F18337C1F1833509F063C088
:100D10002801F2E04F0E511CF801C080D180692DEE
:100D200070E036FC02C06FEF7FEFC6010E94E00763
:100D30004C01689437F882010AC00C5F1F4FFFE333
:100D4000F98388248394912C6501E89437F833FE65
:100D50002DC0522C8114910471F5552009F468CFEF
:100D6000B70180E290E00E94F6075A94F6CFF801AE
:100D7000808189830E5F1F4FE4CF2801F2E04F0E80
:100D8000511CF801C080D180692D70E036FC02C092
:100D90006FEF7FEFC6010E94EB074C018201D5CFB8
:100DA000B70180E290E00E94F6072A942814190403
:100DB00009F0B0F7CECFF60137FC859137FE81916F
:100DC0006F01B70190E00E94F60751105A94F1E0CC
:100DD0008F1A9108BFCF843619F0893609F077C091
:100DE000F80137FE6BC060817181828193810C5F55
:100DF0001F4FF32DFF763F2E97FF09C090958095EA
:100E0000709561957F4F8F4F9F4F689437F82AE018
:100E100030E0A5010E942608C82ECA188C2C432C4D
:100E200036FE0CC0E89440F8C91440F434FE05C006
:100E300032FC03C0F32DFE7E4F2E892C44FE95C05C
:100E4000FE01EC0DF11D8081803309F087C0242D57
:100E5000297E422E842D8870582E43FC95C040FE7A
:100E60008FC09C2C821418F42C0C922C981844FEE1
:100E700091C0B70180E390E00E94F60742FE09C0EE
:100E800088E790E041FE02C088E590E0B7010E944B
:100E9000F607C91408F48AC0CA94D12C9FEFC91A66
:100EA000D90ACA0CDB1CF60182916F01B70190E0F0
:100EB0000E94F607AC14BD04B1F74FCF6081718179
:100EC000072E000C880B990B0E5F1F4F92CFD32C6F
:100ED000E894D4F82AE030E0853739F1232D297FD2
:100EE000D22E8F3601F148F48835A9F0F7018681BA
:100EF00097812B96E2E10C94B608803749F0883749
:100F0000A9F7D4FE02C06894D2F820E130E00DC009
:100F10006894D4F8F6CF34FE03C0822F8660D82EB2
:100F200020E132E002C028E030E0F801D7FE0FC037
:100F300060817181828193810C5F1F4FA5010E94A6
:100F40002608C82ECA183D2CE89437F867CF608170
:100F5000718190E080E00E5F1F4FF0CF42FC02C035
:100F6000839478CF8394839475CF842D867809F405
:100F700071CFF6CFB70180E290E00E94F60783942C
:100F80008214C0F3512C73CF522C5818821408F4D9
:100F90006ECFF8CF842D867809F47BCF8BE241FEAB
:100FA00080E247FC8DE2B70190E071CFB70180E3AA
:100FB00090E00E94F6079A946CCF8FEF9FEF99CF45
:100FC000FC010590615070400110D8F78095909514
:100FD0008E0F9F1F0895FC01615070400190011019
:100FE000D8F7809590958E0F9F1F08950F931F93AC
:100FF000CF93DF93182F092FEB018B8181FD09C05F
:101000001FEF0FEF812F902FDF91CF911F910F9145
:10101000089582FF14C02E813F818C819D81281705
:1010200039073CF4E881F981CF01019699838883DF
:1010300010838E819F8101969F838E83E3CFE88505
:10104000F985812F0995892BA1F3DACFFA01AA2717
:10105000283051F1203181F1E8946F936E7F6E5FFB
:101060007F4F8F4F9F4FAF4FB1E03ED0B4E03CD0A9
:10107000670F781F891F9A1FA11D680F791F8A1F8C
:10108000911DA11D6A0F711D811D911DA11D20D0F3
:1010900009F468943F912AE0269F11243019305DAD
:1010A0003193DEF6CF010895462F4770405D41939E
:1010B000B3E00FD0C9F7F6CF462F4F70405D4A33EB
:1010C00018F0495D31FD4052419302D0A9F7EACFB3
:1010D000B4E0A6959795879577956795BA95C9F7E2
:1010E00000976105710508959B01AC010A2E0694D5
:1010F0005795479537952795BA95C9F7620F731F8E
:10110000841F951FA01D0895F999FECF92BD81BD42
:10111000F89A992780B50895262FF999FECF1FBA1E
:1011200092BD81BD20BD0FB6F894FA9AF99A0FBE10
:10113000019608952F923F924F925F926F927F9205
:101140008F929F92AF92BF92CF92DF92EF92FF92D7
:101150000F931F93CF93DF93CDB7DEB7CA1BDB0B83
:101160000FB6F894DEBF0FBECDBF09942A88398828
:1011700048885F846E847D848C849B84AA84B9842F
:10118000C884DF80EE80FD800C811B81AA81B9813B
:10119000CE0FD11D0FB6F894DEBF0FBECDBFED014F
:0611A0000895F894FFCF52
:1011A600253264002533752E253175002532752EBE
:1011B600253175002534642E253175002020202028
:1011C600202000546F6E79204F6C697661726573CA
:1011D6000045453130392050726F6A65637400549A
:0811E6003A00202D2D2D000020
:00000001FF
